{
  "contractName": "DataProvenance",
  "abi": [
    {
      "inputs": [
        {
          "internalType": "string",
          "name": "",
          "type": "string"
        }
      ],
      "name": "records",
      "outputs": [
        {
          "internalType": "bytes32",
          "name": "dataHash",
          "type": "bytes32"
        },
        {
          "internalType": "string",
          "name": "ipfsCid",
          "type": "string"
        },
        {
          "internalType": "address",
          "name": "uploader",
          "type": "address"
        },
        {
          "internalType": "uint256",
          "name": "timestamp",
          "type": "uint256"
        }
      ],
      "stateMutability": "view",
      "type": "function",
      "constant": true
    },
    {
      "inputs": [
        {
          "internalType": "string",
          "name": "datasetId",
          "type": "string"
        },
        {
          "internalType": "bytes32",
          "name": "dataHash",
          "type": "bytes32"
        },
        {
          "internalType": "string",
          "name": "ipfsCid",
          "type": "string"
        }
      ],
      "name": "registerDataset",
      "outputs": [],
      "stateMutability": "nonpayable",
      "type": "function"
    },
    {
      "inputs": [
        {
          "internalType": "string",
          "name": "datasetId",
          "type": "string"
        }
      ],
      "name": "getDataset",
      "outputs": [
        {
          "internalType": "bytes32",
          "name": "",
          "type": "bytes32"
        },
        {
          "internalType": "string",
          "name": "",
          "type": "string"
        },
        {
          "internalType": "address",
          "name": "",
          "type": "address"
        },
        {
          "internalType": "uint256",
          "name": "",
          "type": "uint256"
        }
      ],
      "stateMutability": "view",
      "type": "function",
      "constant": true
    }
  ],
  "bytecode": "0x608060405234801561001057600080fd5b50610c58806100206000396000f3fe608060405234801561001057600080fd5b50600436106100415760003560e01c8063541e771d1461004657806398365c0b14610079578063f76ce73614610095575b600080fd5b610060600480360381019061005b91906105db565b6100c8565b6040516100709493929190610716565b60405180910390f35b610093600480360381019061008e919061078e565b6101b6565b005b6100af60048036038101906100aa91906105db565b6102e7565b6040516100bf9493929190610716565b60405180910390f35b60008180516020810182018051848252602083016020850120818352809550505050505060009150905080600001549080600101805461010790610848565b80601f016020809104026020016040519081016040528092919081815260200182805461013390610848565b80156101805780601f1061015557610100808354040283529160200191610180565b820191906000526020600020905b81548152906001019060200180831161016357829003601f168201915b5050505050908060020160009054906101000a900473ffffffffffffffffffffffffffffffffffffffff16908060030154905084565b600080846040516101c791906108b5565b90815260200160405180910390206003015414610219576040517f08c379a000000000000000000000000000000000000000000000000000000000815260040161021090610918565b60405180910390fd5b60405180608001604052808381526020018281526020013373ffffffffffffffffffffffffffffffffffffffff1681526020014281525060008460405161026091906108b5565b908152602001604051809103902060008201518160000155602082015181600101908161028d9190610ae4565b5060408201518160020160006101000a81548173ffffffffffffffffffffffffffffffffffffffff021916908373ffffffffffffffffffffffffffffffffffffffff16021790555060608201518160030155905050505050565b60006060600080600080866040516102ff91906108b5565b90815260200160405180910390206040518060800160405290816000820154815260200160018201805461033290610848565b80601f016020809104026020016040519081016040528092919081815260200182805461035e90610848565b80156103ab5780601f10610380576101008083540402835291602001916103ab565b820191906000526020600020905b81548152906001019060200180831161038e57829003601f168201915b505050505081526020016002820160009054906101000a900473ffffffffffffffffffffffffffffffffffffffff1673ffffffffffffffffffffffffffffffffffffffff1673ffffffffffffffffffffffffffffffffffffffff1681526020016003820154815250509050600081606001510361045d576040517f08c379a000000000000000000000000000000000000000000000000000000000815260040161045490610c02565b60405180910390fd5b80600001518160200151826040015183606001519450945094509450509193509193565b6000604051905090565b600080fd5b600080fd5b600080fd5b600080fd5b6000601f19601f8301169050919050565b7f4e487b7100000000000000000000000000000000000000000000000000000000600052604160045260246000fd5b6104e88261049f565b810181811067ffffffffffffffff82111715610507576105066104b0565b5b80604052505050565b600061051a610481565b905061052682826104df565b919050565b600067ffffffffffffffff821115610546576105456104b0565b5b61054f8261049f565b9050602081019050919050565b82818337600083830152505050565b600061057e6105798461052b565b610510565b90508281526020810184848401111561059a5761059961049a565b5b6105a584828561055c565b509392505050565b600082601f8301126105c2576105c1610495565b5b81356105d284826020860161056b565b91505092915050565b6000602082840312156105f1576105f061048b565b5b600082013567ffffffffffffffff81111561060f5761060e610490565b5b61061b848285016105ad565b91505092915050565b6000819050919050565b61063781610624565b82525050565b600081519050919050565b600082825260208201905092915050565b60005b8381101561067757808201518184015260208101905061065c565b60008484015250505050565b600061068e8261063d565b6106988185610648565b93506106a8818560208601610659565b6106b18161049f565b840191505092915050565b600073ffffffffffffffffffffffffffffffffffffffff82169050919050565b60006106e7826106bc565b9050919050565b6106f7816106dc565b82525050565b6000819050919050565b610710816106fd565b82525050565b600060808201905061072b600083018761062e565b818103602083015261073d8186610683565b905061074c60408301856106ee565b6107596060830184610707565b95945050505050565b61076b81610624565b811461077657600080fd5b50565b60008135905061078881610762565b92915050565b6000806000606084860312156107a7576107a661048b565b5b600084013567ffffffffffffffff8111156107c5576107c4610490565b5b6107d1868287016105ad565b93505060206107e286828701610779565b925050604084013567ffffffffffffffff81111561080357610802610490565b5b61080f868287016105ad565b9150509250925092565b7f4e487b7100000000000000000000000000000000000000000000000000000000600052602260045260246000fd5b6000600282049050600182168061086057607f821691505b60208210810361087357610872610819565b5b50919050565b600081905092915050565b600061088f8261063d565b6108998185610879565b93506108a9818560208601610659565b80840191505092915050565b60006108c18284610884565b915081905092915050565b7f4461746173657420494420616c7265616479206578697374732e000000000000600082015250565b6000610902601a83610648565b915061090d826108cc565b602082019050919050565b60006020820190508181036000830152610931816108f5565b9050919050565b60008190508160005260206000209050919050565b60006020601f8301049050919050565b600082821b905092915050565b60006008830261099a7fffffffffffffffffffffffffffffffffffffffffffffffffffffffffffffffff8261095d565b6109a4868361095d565b95508019841693508086168417925050509392505050565b6000819050919050565b60006109e16109dc6109d7846106fd565b6109bc565b6106fd565b9050919050565b6000819050919050565b6109fb836109c6565b610a0f610a07826109e8565b84845461096a565b825550505050565b600090565b610a24610a17565b610a2f8184846109f2565b505050565b5b81811015610a5357610a48600082610a1c565b600181019050610a35565b5050565b601f821115610a9857610a6981610938565b610a728461094d565b81016020851015610a81578190505b610a95610a8d8561094d565b830182610a34565b50505b505050565b600082821c905092915050565b6000610abb60001984600802610a9d565b1980831691505092915050565b6000610ad48383610aaa565b9150826002028217905092915050565b610aed8261063d565b67ffffffffffffffff811115610b0657610b056104b0565b5b610b108254610848565b610b1b828285610a57565b600060209050601f831160018114610b4e5760008415610b3c578287015190505b610b468582610ac8565b865550610bae565b601f198416610b5c86610938565b60005b82811015610b8457848901518255600182019150602085019450602081019050610b5f565b86831015610ba15784890151610b9d601f891682610aaa565b8355505b6001600288020188555050505b505050505050565b7f44617461736574204944206e6f7420666f756e642e0000000000000000000000600082015250565b6000610bec601583610648565b9150610bf782610bb6565b602082019050919050565b60006020820190508181036000830152610c1b81610bdf565b905091905056fea2646970667358221220db02e6b09d6bbe649bf45a7c6e2e35083d5bc9cf49a61d660edd33ee2e0aa57564736f6c63430008110033",
  "immutableReferences": {},
  "source": "// SPDX-License-Identifier: MIT\r\npragma solidity ^0.8.17;\r\n\r\ncontract DataProvenance {\r\n    struct Record {\r\n        bytes32 dataHash; // The SHA-256 fingerprint\r\n        string ipfsCid;  // <-- NEW: The IPFS location\r\n        address uploader;\r\n        uint256 timestamp;\r\n    }\r\n\r\n    mapping(string => Record) public records;\r\n\r\n    function registerDataset(\r\n        string memory datasetId, \r\n        bytes32 dataHash,\r\n        string memory ipfsCid // <-- NEW: IPFS CID argument\r\n    ) external {\r\n        require(records[datasetId].timestamp == 0, \"Dataset ID already exists.\");\r\n\r\n        records[datasetId] = Record({\r\n            dataHash: dataHash,\r\n            ipfsCid: ipfsCid, // <-- NEW: Store the CID\r\n            uploader: msg.sender,\r\n            timestamp: block.timestamp\r\n        });\r\n    }\r\n\r\n    function getDataset(\r\n        string memory datasetId\r\n    ) external view returns (bytes32, string memory, address, uint256) {\r\n        Record memory record = records[datasetId];\r\n        require(record.timestamp != 0, \"Dataset ID not found.\");\r\n\r\n        // --- RETURN THE IPFS CID AS WELL ---\r\n        return (record.dataHash, record.ipfsCid, record.uploader, record.timestamp);\r\n    }\r\n}",
  "sourcePath": "C:\\Users\\gargs\\Desktop\\TrustChainML\\contracts\\DataProvenance.sol",
  "compiler": {
    "name": "solc",
    "version": "0.8.17+commit.8df45f5f.Emscripten.clang"
  },
  "schemaVersion": "3.4.16",
  "updatedAt": "2025-11-01T11:44:06.703Z",
  "networkType": "ethereum",
  "devdoc": {
    "kind": "dev",
    "methods": {},
    "version": 1
  },
  "userdoc": {
    "kind": "user",
    "methods": {},
    "version": 1
  }
}